:020000040800F2
:1000000000000220C51F00085D0700085F07000808
:10001000610700086307000865070008000000008A
:10002000000000000000000000000000670700085A
:1000300069070008000000006B0700086D07000852
:1000400015200008152000081520000815200008BC
:1000500015200008152000081520000815200008AC
:10006000152000081520000815200008152000089C
:10007000152000081520000815200008152000088C
:10008000152000081520000815200008152000087C
:10009000152000081520000815200008152000086C
:1000A000152000081520000815200008152000085C
:1000B000152000081520000815200008152000084C
:1000C000152000081520000815200008152000083C
:1000D000152000081520000815200008152000082C
:1000E00075070008152000081520000815200008D5
:1000F000152000081520000815200008152000080C
:1001000015200008152000081520000815200008FB
:1001100015200008152000081520000815200008EB
:1001200015200008152000081520000815200008DB
:1001300015200008152000081520000815200008CB
:1001400015200008152000081520000815200008BB
:1001500015200008152000081520000815200008AB
:10016000152000081520000815200008152000089B
:10017000152000081520000815200008152000088B
:10018000152000081520000815200008152000087B
:1001900015200008000000001520000815200008A8
:1001A000152000081520000815200008152000085B
:1001B000152000081520000815200008152000084B
:1001C000152000081520000815200008152000083B
:0801D0001520000815200008AD
:1001D80053B94AB9002908BF00281CBF4FF0FF31A6
:1001E8004FF0FF3000F0E2B8ADF1080C6DE904CE35
:1001F80001F0F6FFDDF804E0DDE9022304B0704702
:1002080000F1340191E838009C46A6464CF8045D9C
:1002180090E8FF0FE54600BD90EC210B704700BF4A
:1002280080EC210B704700BF90EC200B704700BF9B
:1002380080EC200B704700BFD0EC200B704700BF4C
:10024800C0EC200B704700BFF0EC0201F0EC02118B
:10025800F0EC0221F0EC0231F0EC0241F0EC02513A
:10026800F0EC0261F0EC0271F0EC0281F0EC02912A
:10027800F0EC02A1F0EC02B1F0EC02C1F0EC02D11A
:10028800F0EC02E1F0EC02F1704700BFE0EC020193
:10029800E0EC0211E0EC0221E0EC0231E0EC02417A
:1002A800E0EC0251E0EC0261E0EC0271E0EC02816A
:1002B800E0EC0291E0EC02A1E0EC02B1E0EC02C15A
:1002C800E0EC02D1E0EC02E1E0EC02F1704700BFA3
:1002D800B0FC0181B0FC0191B0FC01A1B0FC01B1FE
:1002E800704700BFA0FC0181A0FC0191A0FC01A106
:1002F800A0FC01B1704700BFEC4600B52DE90050E5
:100308002DE9FF1F4FF000032DE90C0001A902F0B1
:1003180021FADDF840E012B0704700BFEC4600B5A6
:100328002DE900502DE9FF1F4FF000032DE90C00C7
:1003380001A902F04BFADDF840E012B0704700BFA7
:10034800EC4600B52DE900502DE9FF1F4FF00003E2
:100358002DE90C0001A902F05BFADDF840E012B0CB
:10036800704700BFEC4600B52DE900502DE9FF1F8E
:100378004FF000032DE90C0001AB02F01FFADDF885
:1003880040E012B0704700BFEC4600B52DE90050C0
:100398002DE9FF1F4FF000032DE90C0001AA02F020
:1003A8008BFADDF840E012B0704700BF704700BF1D
:1003B800844641EA000313F003036DD1403A41D368
:1003C80051F8043B40F8043B51F8043B40F8043B27
:1003D80051F8043B40F8043B51F8043B40F8043B17
:1003E80051F8043B40F8043B51F8043B40F8043B07
:1003F80051F8043B40F8043B51F8043B40F8043BF7
:1004080051F8043B40F8043B51F8043B40F8043BE6
:1004180051F8043B40F8043B51F8043B40F8043BD6
:1004280051F8043B40F8043B51F8043B40F8043BC6
:1004380051F8043B40F8043B51F8043B40F8043BB6
:10044800403ABDD2303211D351F8043B40F8043B56
:1004580051F8043B40F8043B51F8043B40F8043B96
:1004680051F8043B40F8043B103AEDD20C3205D366
:1004780051F8043B40F8043B043AF9D2043208D05E
:10048800D2071CBF11F8013B00F8013B01D30B88D0
:1004980003806046704700BF082A13D38B078DD0AE
:1004A80010F003038AD0C3F10403D21ADB071CBF80
:1004B80011F8013B00F8013B80D331F8023B20F8EA
:1004C800023B7BE7043AD9D3013A11F8013B00F823
:1004D800013BF9D20B7803704B7843708B788370AB
:1004E8006046704710B5054C237833B9044B13B1F7
:1004F8000448AFF300800123237010BD3C040020A2
:10050800000000002832000808B5034B1BB103495E
:100518000348AFF3008008BD00000000400400203D
:1005280028320008F0B58BB000240594069407948F
:1005380008940994344BDA6C42F00402DA64DA6CF9
:1005480002F004020192019ADA6C42F02002DA64A5
:10055800DA6C02F020020292029ADA6C42F001028E
:10056800DA64DA6C02F001020392039ADA6C42F060
:100578000202DA64DB6C03F002030493049B224654
:100588004FF408714FF0904000F015FB1F4E2246C3
:100598008021304600F00FFB1D4F2246402138468F
:1005A80000F009FB4FF4005305931A4B0693079488
:1005B80005A9304600F01EFA4FF40873059301258B
:1005C80006950794089405A94FF0904000F012FA98
:1005D8008023059306950794089405A9304600F0F2
:1005E80009FA4023059306950794089405A9384607
:1005F80000F000FA22462146282000F0A1F9282020
:1006080000F0D6F90BB0F0BD001002400008004819
:10061800000400480000111072B6FEE710B5A8B03B
:10062800382200211AA801F017FD00241594169409
:1006380017941894199454222146684601F00CFD29
:10064800204600F0D5FA02231A934FF480721D92C7
:1006580040221E922193229304222392552224920F
:100668002593269327931AA800F07CFBB0B90F2393
:1006780015930323169300231793189319930421B2
:1006880015A800F027FE58B92023009300230693ED
:10069800684600F045FF28B928B010BDFFF7BCFF39
:1006A800FFF7BAFFFFF7B8FF08B500F001F9FFF749
:1006B800B5FFFFF737FF00F06DF801224FF4007126
:1006C8004FF0904000F077FA00224021114800F0E6
:1006D80072FA0CE0012220214FF0904000F06BFAF2
:1006E80080210D4800F06CFA012000F003F94FF466
:1006F8000051094800F058FA0028EBD100222021C7
:100708004FF0904000F057FA00228021024800F094
:1007180052FAE9E7000400480008004800B583B031
:100728000B4B1A6E42F001021A661A6E02F00102B1
:100738000092009A9A6D42F080529A659B6D03F080
:1007480080530193019B00F0D9FA03B05DF804FBD4
:1007580000100240FEE7FEE7FEE7FEE7FEE770470F
:100768007047704708B500F0B3F808BD08B54FF4F6
:10077800005000F02FFA08BD054BD3F8882042F44A
:100788007002C3F888204FF000629A60704700BF7B
:1007980000ED00E008B51748174B03604FF4E1334C
:1007A800436000238360C36003610C22426183615C
:1007B80003624362836201F02BFB70B900210D488C
:1007C80001F0B1FB60B900210A4801F0D1FB50B932
:1007D800084801F089FB48B908BDFFF71DFFEDE7A0
:1007E800FFF71AFFEFE7FFF717FFF1E7FFF714FF2F
:1007F800F2E700BF580400200080004000B589B02F
:100808000023039304930593069307930268134BFD
:100818009A4202D009B05DF804FB03F5C833DA6DDB
:1008280042F00102DA65DA6D02F001020192019AE2
:10083800DA6C42F00102DA64DB6C03F00103029324
:10084800029B0C2303930222049207930DEB0301EE
:100858004FF0904000F0CEF8DCE700BF0080004089
:10086800104B1B680BB90120704710B504464FF4B4
:100878007A70B0FBF3F30C4A1068B0FBF3F000F0A9
:10088800A5F868B90F2C01D901200AE000222146F9
:100898004FF0FF3000F054F8044B1C60002000E0DB
:1008A800012010BD040000200000002008000020E6
:1008B80010B5032000F032F80020FFF7D1FF10B187
:1008C8000124204610BD0446FFF728FFF9E7000081
:1008D800034A1368034909680B441360704700BF53
:1008E800E404002004000020014B1868704700BF92
:1008F800E404002038B50446FFF7F6FF0546B4F1D6
:10090800FF3F02D0044B1B681C44FFF7EDFF401B60
:10091800A042FAD338BD00BF04000020074AD368BC
:1009280023F4E0631B041B0C000200F4E0600343A3
:1009380043F0BF6343F40033D360704700ED00E039
:1009480000B5194BDB68C3F30223C3F1070CBCF1F4
:10095800040F28BF4FF0040C03F1040EBEF1060F7C
:1009680018D9033B4FF0FF3E0EFA0CFC21EA0C01AC
:1009780099400EFA03F322EA0303194300280BDB1C
:100988000901C9B200F1604000F5614080F8001328
:100998005DF804FB0023E5E700F00F000901C9B288
:1009A800024B1954F4E700BF00ED00E014ED00E03D
:1009B800002807DB00F01F02400901239340024A88
:1009C80042F82030704700BF00E100E00138B0F184
:1009D800807F0BD24FF0E0235861054AF02182F85E
:1009E80023100020986107221A6170470120704780
:1009F80000ED00E0F0B583B0002336E0052400E008
:100A08000024B4403C430235634E46F82540634C0D
:100A18002568D44325EA02064F6817F4803F01D0C1
:100A280042EA05065D4D2E606D6804EA05064F68CA
:100A380017F4003F01D042EA0506584D6E60AD68D4
:100A480004EA05064F6817F4801F01D042EA05063C
:100A5800524DAE60ED682C404E6816F4001F01D070
:100A680042EA05044D4AD46001330A6832FA03F4B5
:100A780000F08F804FF0010C0CFA03FC1CEA020214
:100A8800F2D04C68651E012D03D9112C01D0122C0F
:100A980013D185685E000324B44025EA0405CC68B8
:100AA800B4402C438460446824EA0C0C4C68C4F3BA
:100AB80000149C4044EA0C044460C6684FEA430CA6
:100AC800032505FA0CF5EC4326EA050E8D6805FAB0
:100AD8000CF545EA0E05C5604D68022D01D0122DB2
:100AE80012D1DE08083650F8267003F007054FEAE1
:100AF800850E0F2505FA0EF527EA05070D6905FA93
:100B08000EF53D4340F82650056825404C6804F032
:100B1800030404FA0CF42C4304604C6814F0805F5E
:100B2800A2D01F4C256E45F001052566246E04F001
:100B380001040194019C9D08AE1C174C54F82670C2
:100B480003F00304A6000F24B44027EA0407B0F119
:100B5800904F3FF455AF134CA04212D004F5806477
:100B6800A04210D004F58064A0420ED004F5806441
:100B7800A0420CD004F58064A0423FF43FAF0624A5
:100B88003FE701243DE702243BE7032439E7042437
:100B980037E703B0F0BD00BF00000140000401408A
:100BA80000100240000400480369194201D00120E6
:100BB8007047002070470AB18161704781627047B1
:100BC800436901EA030221EA030141EA0241816122
:100BD8007047704708B5054B5B69034200D108BDF3
:100BE800024B5861FFF7F5FFF9E700BF0004014029
:100BF800002836D13E4B1B6803F4C063B3F5806F01
:100C080008D03B4AD2F8803023F48073C2F8803091
:100C180000207047364AD2F8803023F48073C2F837
:100C28008030136823F4C06343F400731360314BBE
:100C38001B68322202FB03F32F4AA2FB03239B0CFF
:100C4800013300E0013B2A4A526912F4806F01D057
:100C5800002BF7D1264B5B6913F4806F44D1002039
:100C68007047B0F5007F08D0214A136823F4C063A9
:100C780043F480631360002070471D4B1B6803F426
:100C8800C063B3F5806F08D0194AD2F8803043F4B6
:100C98008073C2F8803000207047154AD2F880303F
:100CA80043F48073C2F88030136823F4C06343F4BC
:100CB800007313600F4B1B68322202FB03F30E4ACA
:100CC800A2FB03239B0C013300E0013B084A526955
:100CD80012F4806F01D0002BF7D1054B5B6913F438
:100CE800806F03D1002070470320704703207047AE
:100CF800007000400000002083DE1B43024A936816
:100D080043F480439360704700700040124BDA68E8
:100D180002F00302D868C0F30310431C032A11D061
:100D28000E48B0FBF3F00C4BDB68C3F3062303FB60
:100D380000F0094BDB68C3F3416301335B00B0FB90
:100D4800F3F070470648B0FBF3F0034BDB68C3F3DE
:100D5800062303FB00F0ECE7001002400024F40037
:100D680000366E01002800F0548270B582B0044647
:100D7800036813F0010F37D0A44A936803F00C03FB
:100D8800D26802F003020C2B23D0082B23D063680F
:100D9800B3F5803F4ED0B3F5A02F51D09B4B1A68C6
:100DA80022F480321A601A6822F480221A6063687A
:100DB800002B52D0FFF798FD0546944B1B6813F49F
:100DC800003F11D1FFF790FD401B6428F5D903209F
:100DD80028E2032AD9D18D4B1B6813F4003F03D0B6
:100DE8006368002B00F01782236813F0020F5DD0B0
:100DF800864A936803F00C03D26802F003020C2BB6
:100E08003AD0042B3AD0E368002B75D07F4A136898
:100E180043F480731360FFF767FD05467B4B1B683F
:100E280013F4806F5FD1FFF75FFD401B0228F5D9EF
:100E38000320F7E1754A136843F480331360B6E77B
:100E480003F18043A3F53C331A6842F480221A6008
:100E58001A6842F480321A60A9E7FFF745FD054693
:100E68006A4B1B6813F4003FBED0FFF73DFD401BE3
:100E78006428F5D90320D5E1022AC2D1634B1B6847
:100E880013F4806F03D0E368002B00F0C6815F4A3B
:100E9800536823F0FE43216943EA016353605C4BC6
:100EA8001868FFF7DDFC002840F0B981236813F0CB
:100EB800080F4CD063699BB3544AD2F8943043F07E
:100EC8000103C2F89430FFF70FFD05464F4BD3F8E6
:100ED800943013F0020F3AD1FFF706FD401B0228A9
:100EE800F4D903209EE1494A536823F0FE4321695F
:100EF80043EA01635360D9E7444A136823F48073D3
:100F08001360FFF7F1FC0546404B1B6813F4806F34
:100F1800CCD0FFF7E9FC401B0228F5D9032081E17A
:100F28003A4AD2F8943023F00103C2F89430FFF71C
:100F3800DBFC0546354BD3F8943013F0020F06D08E
:100F4800FFF7D2FC401B0228F4D903206AE123688A
:100F580013F0040F00F081802C4B9B6D13F0805F21
:100F680036D12A4B9A6D42F080529A659B6D03F0F8
:100F780080530193019B0125264B1B6813F4807F46
:100F880028D0A368012B39D0052B45D01F4BD3F8A7
:100F9800902022F00102C3F89020D3F8902022F08C
:100FA8000402C3F89020A368002B43D0FFF79CFCF1
:100FB8000646164BD3F8903013F0020F4CD1FFF7CA
:100FC80093FC801B41F288339842F2D9032029E12F
:100FD8000025D1E70F4A136843F480731360FFF7C5
:100FE80083FC06460B4B1B6813F4807FC9D1FFF7BF
:100FF8007BFC801B0228F5D9032013E1034AD2F8B1
:10100800903043F00103C2F89030CCE70010024062
:1010180008000020007000408A4BD3F8902042F06E
:101028000402C3F89020D3F8902042F00102C3F8DC
:101038009020B8E7FFF758FC0646824BD3F890306B
:1010480013F0020F08D0FFF74FFC801B41F28833E2
:101058009842F2D90320E5E0E5B9236813F0200FA0
:1010680035D0A369E3B1774AD2F8983043F0010349
:10107800C2F89830FFF738FC0546724BD3F8983021
:1010880013F0020F23D1FFF72FFC401B0228F4D9DD
:101098000320C7E06B4A936D23F080539365DCE728
:1010A800684AD2F8983023F00103C2F89830FFF765
:1010B8001BFC0546634BD3F8983013F0020F06D09B
:1010C800FFF712FC401B0228F4D90320AAE0E369C9
:1010D800002B00F0A6805B4A926802F00C020C2AF2
:1010E80069D0022B1DD0574B1A6822F080721A6003
:1010F800DA6822F00302DA60DA6822F0887222F4F1
:101108008032DA60FFF7F0FB04464E4B1B6813F0A1
:10111800007F4ED0FFF7E8FB001B0228F5D903201B
:1011280080E0484A136823F080731360FFF7DCFB04
:101138000546444B1B6813F0007F06D0FFF7D4FB2D
:10114800401B0228F5D903206CE03E4AD3683E498B
:101158001940236A606A013843EA0013A06A43EA27
:101168000023206B4008013843EA4053606B400875
:10117800013843EA4063E06A43EAC0630B43D36043
:10118800136843F080731360D36843F08073D360AF
:10119800FFF7AAFB04462B4B1B6813F0007F06D110
:1011A800FFF7A2FB001B0228F5D903203AE0002034
:1011B80038E0002036E0012B36D0224BDB6803F004
:1011C8000301226A914231D103F0F002616A0139C8
:1011D800B2EB011F2CD103F4FE42A16AB2EB012F3E
:1011E80028D103F07842E16AB2EBC16F24D103F44D
:1011F800C001226B5208013AB1EB425F1ED103F0E5
:10120800C063626B5208013AB3EB426F18D10020F9
:1012180008E001207047012004E0012002E00120DD
:1012280000E0002002B070BD0120FBE70120F9E7D3
:101238000120F7E70120F5E70120F3E70120F1E7B6
:101248000120EFE7001002400C809F011E4B9B68B5
:1012580003F00C03042B33D01B4B9B6803F00C03E7
:10126800082B2FD0184B9B6803F00C030C2B01D0D4
:1012780000207047144BDA6802F00302D868C0F304
:101288000310431C032A11D01048B0FBF3F00E4B97
:10129800DB68C3F3062303FB00F00B4BDB68C3F3E7
:1012A800416301335B00B0FBF3F070470848B0FBC3
:1012B800F3F0054BDB68C3F3062303FB00F0ECE710
:1012C8000248704702487047001002400024F400AA
:1012D80000366E01002800F0E680F8B50C46054699
:1012E800744B1B6803F00F038B420BD2714A1368CF
:1012F80023F00F030B431360136803F00F038B42B3
:1013080040F0D3802E6816F001065FD06B68032B7F
:101318002FD0022B4DD0684B1B6813F4806F00F060
:10132800C680FFF793FF654B98424DD9624A936890
:1013380023F0F00343F08003936080265E4A9368AD
:1013480023F0030369680B439360FFF7CDFA074660
:10135800594B9B6803F00C036A68B3EB820F35D0D6
:10136800FFF7C2FAC01B41F288339842F0D9032034
:1013780078E0514B1B6813F0007F01D1012071E028
:10138800FFF7C4FC4D4B98421AD94B4B9B6813F09E
:10139800F00F05D02E6816F00206CFD0AB688BB9D7
:1013A800454A936823F0F00343F080039360802656
:1013B800C4E7414B1B6813F4003FB2D1012051E050
:1013C8000026BBE70026B9E70026B7E72B6813F02D
:1013D800020F48D013F0040F04D0374A936843F43F
:1013E800E06393602B6813F0080F06D0324A9368C5
:1013F80023F47C5343F4E06393602F4A936823F00B
:10140800F003A9680B4393602A4B1B6803F00F0392
:10141800A34230D82B6813F0040F06D0264A9368ED
:1014280023F4E063E9680B4393602B6813F0080F1B
:1014380007D0214A936823F46053296943EAC1031A
:101448009360FFF703FF1C4B9B68C3F303131C4A0D
:10145800D35C03F01F03D8401A4B18601A4B186866
:10146800FFF7FEF9F8BD802ECED1134A936823F01A
:10147800F0039360C8E70F4A136823F00F03234370
:101488001360FFF731FA06460A4B1B6803F00F0397
:10149800A342BFD0FFF728FA801B41F28833984255
:1014A800F2D90320DEE7012070470120DAE70120A6
:1014B800D8E700BF002002400010024000B4C40476
:1014C800483200080000002008000020014B18687E
:1014D800704700BF0000002008B5FFF7F7FF054B75
:1014E8009B68C3F30223044AD35C03F01F03D8406C
:1014F80008BD00BF001002405832000808B5FFF7C9
:10150800E5FF054B9B68C3F3C223044AD35C03F091
:101518001F03D84008BD00BF001002405832000821
:10152800F0B583B00446036813F4002F6ED0354B32
:101538009B6D13F0805F1ED1324B9A6D42F0805242
:101548009A659B6D03F080530193019B01262E4AF7
:10155800136843F480731360FFF7C6F905462A4BF6
:101568001B6813F4807F08D1FFF7BEF9401B0228DF
:10157800F5D9032502E00026E9E7002545BB214B04
:10158800D3F8903013F4407315D0226D9A4212D0DC
:101598001C4AD2F8903023F44073D2F8901041F4EA
:1015A8008031C2F89010D2F8901021F48031C2F83E
:1015B8009010C2F8903013F0010F10D145B9114ABC
:1015C800D2F8903023F44073216D0B43C2F8903069
:1015D800EEB10C4A936D23F08053936517E0FFF743
:1015E80083F90746074BD3F8903013F0020FE5D183
:1015F800FFF77AF9C01B41F288339842F2D90325E4
:10160800DCE700BF0010024000700040002523689E
:1016180013F0010F08D09F4AD2F8883023F0030353
:1016280061680B43C2F88830236813F0020F08D0B2
:10163800984AD2F8883023F00C03A1680B43C2F80B
:101648008830236813F0040F08D0924AD2F8883003
:1016580023F03003E1680B43C2F88830236813F0A5
:10166800080F08D08B4AD2F8883023F0C0032169CC
:101678000B43C2F88830236813F0100F08D0854A4E
:10168800D2F8883023F4407361690B43C2F888307C
:10169800236813F0200F08D07E4AD2F8883023F44C
:1016A8004063A1690B43C2F88830236813F0400FE8
:1016B80008D0784AD2F8883023F44053E1690B43C4
:1016C800C2F88830236813F0800F08D0714AD2F826
:1016D800883023F44043216A0B43C2F888302368DA
:1016E80013F4807F08D06B4AD2F8883023F4403353
:1016F800616A0B43C2F88830236813F4003F08D0AE
:10170800644AD2F89C3023F00303A16A0B43C2F861
:101718009C30236813F4007F08D05E4AD2F88830E2
:1017280023F44023E16A0B43C2F88830236813F49A
:10173800806F0CD0574AD2F8883023F44013216BBD
:101748000B43C2F88830236BB3F5801F79D0236828
:1017580013F4006F0CD04F4AD2F8883023F44003BA
:10176800616B0B43C2F88830636BB3F5800F6DD0A3
:10177800236813F4805F0CD0464AD2F8883023F0EF
:101788004073A16B0B43C2F88830A36BB3F1807F21
:1017980061D0236813F4005F0CD03E4AD2F8883039
:1017A80023F04063E16B0B43C2F88830E36BB3F17D
:1017B800006F55D0236813F4804F0CD0354AD2F807
:1017C800883023F04063216C0B43C2F88830236CC7
:1017D800B3F1006F49D0236813F4004F0CD02D4AA1
:1017E800D2F8883023F04053616C0B43C2F888303C
:1017F800636CB3F1805F3DD0236813F4803F0CD055
:10180800244AD2F8883023F04043A16C0B43C2F835
:101818008830A36CB3F1804F31D0236813F4802F44
:101828000CD01C4AD2F89C3023F44013E16C0B43D3
:10183800C2F89C30E36CB3F5001F25D0284603B0EE
:10184800F0BDD36843F48013D36080E7D36843F4D2
:101858008013D3608CE7D36843F48013D36098E790
:10186800D36843F48013D360A4E7D36843F48013A8
:10187800D360B0E7D36843F48033D360BCE7D36860
:1018880043F48033D360C8E7D36843F48013D3604C
:10189800D4E700BF0010024070B5044601688368B1
:1018A8000269134342691343C2691343426E1343E7
:1018B8000868964A02401A430A602268536823F46B
:1018C8004053E1680B435360A1692268904B9A42E8
:1018D80001D0236A1943936823F06E4323F43063DD
:1018E8000B4393602268D36A23F00F03616A0B43AA
:1018F800D3622368874A934210D0874A934221D003
:10190800864A934237D0864A93425CD0854A9342AE
:101918006BD07F4A93427DD010223AE002F55842BC
:10192800D2F8882002F00302032A09D8DFE802F07F
:101938000204870601222CE004222AE0082228E07B
:10194800102226E002F5E632D2F8882002F00C02D6
:101958000C2A0ED8DFE802F0070D0D0D090D0D0D4C
:10196800750D0D0D0B00002213E0042211E0082272
:101978000FE010220DE002F5E432D2F8882002F0E0
:101988003002202A5FD01AD8002A5ED0102A5ED1F1
:1019980004225F498B4276D0E069B0F5004F00F031
:1019A800C980082A00F23481DFE812F0F700190133
:1019B800F50032011C013201320132011F01302AC7
:1019C80047D10822E5E702F5E232D2F8882002F092
:1019D800C002802A3FD004D8FAB3402A3FD104225B
:1019E800D7E7C02A3DD10822D3E702F5E032D2F882
:1019F800882002F44072B2F5007F34D005D8A2B333
:101A0800B2F5807F33D10422C3E7B2F5407F30D1ED
:101A18000822BEE702F5C832D2F8882002F44062F4
:101A2800B2F5006F27D005D83AB3B2F5806F26D14A
:101A38000422AEE7B2F5406F23D10822A9E70222BB
:101A4800A7E70222A5E70222A3E70022A1E71022C6
:101A58009FE710229DE702229BE7002299E71022C8
:101A680097E7102295E7022293E7002291E71022D8
:101A78008FE710228DE702228BE7002289E71022E8
:101A880087E7102285E7082A00F2B280DFE802F033
:101A980008B03BB038B0B0B005004FF4004004E0E7
:101AA800FFF71AFD002800F0A580626A1E4B33F884
:101AB8001220B0FBF2F3656805EB4501994200F28C
:101AC8009B80B3EB053F00F29980002633463146F0
:101AD800FEF77EFB090241EA106100026B08C0189C
:101AE8002A46334641F10001FEF772FBA0F5407229
:101AF8000E4B9A4200F284802368D860304665E035
:101B0800FFF7A4FBCEE70A48CFE700BFF369FFCF92
:101B18000080004000380140004400400048004078
:101B2800004C00400050004060320008FFFC0F00ED
:101B38000024F400082A65D8DFE802F007270564C6
:101B48002A6464640B00354803E0FFF7C5FC0028ED
:101B58005AD0626A324B33F81230B0FBF3F0626845
:101B6800530803EB4000B0FBF2F080B2A0F1100282
:101B78004FF6EF739A4249D820F00F03C0F34200A2
:101B880018432368D860002020E0FFF7B7FCDEE7A1
:101B9800FFF75CFBDBE7214803E0FFF79DFC00282B
:101BA80038D0626A1E4B33F81230B0FBF3F063682A
:101BB80000EB5300B0FBF3F080B2A0F110024FF637
:101BC800EF739A4228D82368D86000200123A4F82C
:101BD8006A30A4F868300023E366236770BDFFF716
:101BE8008DFCDCE7FFF732FBD9E74FF40040D8E77C
:101BF8000120EBE70020E9E70120E7E70120E5E71E
:101C08000120E3E70120E1E70020DFE70120DDE72D
:101C18000120DBE70020D9E70120D7E70024F40002
:101C280060320008836A13F0010F06D00268536817
:101C380023F40033C16A0B435360836A13F0020F25
:101C480006D00268536823F48033016B0B4353605A
:101C5800836A13F0040F06D00268536823F48023C4
:101C6800416B0B435360836A13F0080F06D0026878
:101C7800536823F40043816B0B435360836A13F06A
:101C8800100F06D00268936823F48053C16B0B438E
:101C98009360836A13F0200F06D00268936823F4D8
:101CA8000053016C0B439360836A13F0400F0AD012
:101CB8000268536823F48013416C0B435360436CF0
:101CC800B3F5801F0BD0836A13F0800F06D002682B
:101CD800536823F40023C16C0B43536070470268B8
:101CE800536823F4C003816C0B435360EBE72DE981
:101CF800F84305460F4616469946DDF820802C68BD
:101D0800E46937EA04030CBF4FF0010C4FF0000CF4
:101D1800B44541D1B8F1FF3FF1D0FEF7E5FDA0EBA6
:101D28000900404524D8B8F1000F21D02B681A6863
:101D380012F0040FE3D0DA6912F4006FDFD04FF429
:101D480000621A622A68136823F4D07313602A6841
:101D5800936823F0010393602023C5F88030C5F809
:101D68008430C5F88830002385F87C30032014E0DF
:101D78002A68136823F4D07313602A68936823F0E1
:101D8800010393602023C5F88030C5F88430002310
:101D980085F87C30032000E00020BDE8F88330B5EA
:101DA80083B004460023C0F88830FEF79DFD054641
:101DB8002268126812F0080F0ED123681B6813F00E
:101DC800040F17D12023C4F88030C4F884300020D1
:101DD80084F87C0003B030BD6FF07E430093034667
:101DE80000224FF400112046FFF781FF0028E4D0BD
:101DF8000320EFE76FF07E4300932B4600224FF459
:101E080080012046FFF773FF0028DBD00320E1E7BD
:101E180078B310B50446D0F880300BB32423C4F847
:101E280080302268136823F0010313602046FFF70F
:101E380033FD012813D0A36ABBB92268536823F481
:101E4800904353602268936823F02A0393602268C2
:101E5800136843F0010313602046FFF7A0FF10BD8D
:101E680080F87C30FEF7CAFCD8E72046FFF7DAFE98
:101E7800E3E701207047000084B00346184A92E85F
:101E8800030004AA02E9030016496A4603C982E866
:101E980003005A6E32B90122A3F86A20A3F8682019
:101EA80004B0704719688A68C2F34262886804A956
:101EB80001EB507010F8081CC90010F8100C91FBC9
:101EC800F0F1A3F86A1004A90A4412F8081CC90022
:101ED80012F8102C91FBF2F2A3F86820E0E700BF9B
:101EE800403200087832000890F87C30012B18D076
:101EF800012380F87C302423C0F8803003681A68F6
:101F0800196821F00101196022F00052002343668C
:101F180001680A602022C0F8802080F87C301846CA
:101F280070470220704738B590F87C30012B1DD0DF
:101F38000446012380F87C302423C0F880300368ED
:101F48001D681A6822F001021A600268936823F07B
:101F5800604319439160FFF78FFF23681D602023BA
:101F6800C4F88030002084F87C0038BD0220FCE7EB
:101F780038B590F87C30012B1DD00446012380F839
:101F88007C302423C0F8803003681D681A6822F06A
:101F980001021A600268936823F060631943916034
:101FA800FFF76AFF23681D602023C4F880300020F3
:101FB80084F87C0038BD0220FCE700000D48854607
:101FC8000D480E490E4A002302E0D458C450043389
:101FD800C4188C42F9D30B4A0B4C002301E0136060
:101FE8000432A242FBD3FEF7C7FB00F011F8FEF75C
:101FF8005BFBFEE700000220000000203C040020FC
:10200800683300083C040020F0040020FEE70000CC
:1020180070B50D4E0D4D761BB61006D0002455F840
:10202800043B01349847A642F9D1094E094D761B65
:1020380001F0F6F8B61006D0002455F8043B013438
:102048009847A642F9D170BD5C3300085C3300089C
:10205800643300085C330008830730B548D0541E49
:10206800002A3FD0CAB2034601E0013C3AD303F844
:10207800012B9D07F9D1032C2DD9CDB245EA0525B1
:102088000F2C45EA054536D9A4F1100222F00F0CB1
:1020980003F1200EE6444FEA121C03F1100242E954
:1020A800045542E9025510327245F8D10CF101028B
:1020B80014F00C0F03EB021204F00F0C13D0ACF168
:1020C800040323F003030433134442F8045B9342EC
:1020D800FBD10CF003042CB1CAB21C4403F8012B49
:1020E8009C42FBD130BD64461346002CF4D1F9E77D
:1020F80003461446BFE71A46A446E0E7024B13B16D
:10210800024800F01FB870470000000019210008BD
:1021180038B5084B084D5B1B9C1007D0043B1D4489
:10212800013C55F804399847002CF9D1BDE83840EE
:1021380001F07CB86833000864330008704700BFBA
:10214800704700BF002301461A46184600F000B841
:102158002DE9F047DFF880A00646DAF80000984637
:102168000F469146FFF7EAFF1A4B1B68D3F8484120
:1021780024B365681F2D26DC5EB96B1C0235DAF8BE
:102188000000636044F82570FFF7DAFF0020BDE81F
:10219800F08704EB85010123C1F88890D4F88821E1
:1021A800AB401A43022EC4F88821C1F80881E4D153
:1021B800D4F88C211343C4F88C31DEE703F5A674F8
:1021C800C3F84841D5E7DAF80000FFF7B9FF4FF048
:1021D800FF30DCE78432000838040020FEE700BF47
:1021E8002DE9F047089D04468E46002B4DD18A42C2
:1021F800944669D9B2FA82F252B101FA02F3C2F1F5
:10220800200120FA01F10CFA02FC41EA030E944085
:102218004FEA1C48210CBEFBF8F61FFA8CF708FBA6
:1022280016E341EA034306FB07F199420AD91CEB7E
:10223800030306F1FF3080F01F81994240F21C81B0
:10224800023E63445B1AA4B2B3FBF8F008FB1033F8
:1022580044EA034400FB07F7A7420AD91CEB04042D
:1022680000F1FF3380F00A81A74240F207816444FD
:10227800023840EA0640E41B00261DB1D440002382
:10228800C5E900433146BDE8F0878B4209D9002DE6
:1022980000F0EF800026C5E9000130463146BDE870
:1022A800F087B3FA83F6002E4AD18B4202D38242DA
:1022B80000F2F980841A61EB030301209E46002D89
:1022C800E0D0C5E9004EDDE702B9FFDEB2FA82F2DE
:1022D800002A40F09280A1EB0C014FEA1C471FFA3C
:1022E8008CFE0126200CB1FBF7F307FB131140EA23
:1022F80001410EFB03F0884208D91CEB010103F1F0
:10230800FF3802D2884200F2CB804346091AA4B2B1
:10231800B1FBF7F007FB101144EA01440EFB00FE85
:10232800A64508D91CEB040400F1FF3102D2A645EA
:1023380000F2BB800846A4EB0E0440EA03409CE789
:10234800C6F12007B34022FA07FC4CEA030C20FA36
:1023580007F401FA06F31C43F9404FEA1C4900FA56
:1023680006F3B1FBF9F8200C1FFA8CFE09FB1811D3
:1023780040EA014108FB0EF0884202FA06F20BD946
:102388001CEB010108F1FF3A80F08880884240F296
:102398008580A8F102086144091AA4B2B1FBF9F0DA
:1023A80009FB101144EA014100FB0EFE8E4508D9D5
:1023B8001CEB010100F1FF346CD28E456AD902385A
:1023C800614440EA0840A0FB0294A1EB0E01A1423F
:1023D800C846A64656D353D05DB1B3EB080261EBAD
:1023E8000E0101FA07F722FA06F3F1401F43C5E987
:1023F800007100263146BDE8F087C2F12003D840BD
:102408000CFA02FC21FA03F3914001434FEA1C47FE
:102418001FFA8CFEB3FBF7F007FB10360B0C43EAF0
:10242800064300FB0EF69E4204FA02F408D91CEBA0
:10243800030300F1FF382FD29E422DD9023863449E
:102448009B1B89B2B3FBF7F607FB163341EA03413E
:1024580006FB0EF38B4208D91CEB010106F1FF388D
:1024680016D28B4214D9023E6144C91A46EA004684
:1024780038E72E46284605E70646E3E61846F8E616
:102488004B45A9D2B9EB020864EB0C0E0138A3E75F
:102498004646EAE7204694E74046D1E7D0467BE740
:1024A800023B614432E7304609E76444023842E7B8
:1024B80003685A004CBF43F0004323F0004318441C
:1024C800704700BF2DE9F84329B34F1E044615464F
:1024D8003E464FF0000808EB060101EBD1714910A8
:1024E80004EBC1094846FFF7E3FF0346C80008307C
:1024F8008F42204409D0AB4209D8FFF7D9FF0138F1
:10250800A8420AD201F10108E5E7AB4205D988459E
:1025180001D04E1EDFE74FF000094846BDE8F883BA
:10252800012807D0022807D0044B00280CBF184602
:10253800002070470248704702487047ED2B00089A
:10254800F52B0008FD2B000830B5234B83B004465B
:102558008D1E3BB301A92846AFF30080E8B101996D
:102568002A46FFF7AFFF0146B8B1FFF7A1FF4B6856
:10257800A064012B2CD0002B01F1040024DBFFF711
:1025880097FF0023C4E913030368002B11DBFFF74F
:102598008FFF2061002003B030BD00230920236194
:1025A80003B030BD0D4B0E49C91AC9101846019128
:1025B800D6E7C3F30360FFF7B3FF0028206114BF19
:1025C8000020092003B030BD0123C4E91303DBE771
:1025D800002323610520DEE7000000009432000894
:1025E8005C3300080368DA0710B5044606D49B0775
:1025F80000F1480009D5FDF717FE2368590709D5EA
:102608001A070ED5DB0613D510BDFDF705FE2368A6
:102618005907F5D404F1D000FDF70EFE23681A0718
:10262800F0D404F5A870FDF70FFE2368DB06EBD4A1
:1026380004F5E870BDE81040FDF74ABE034600689F
:1026480000B11844704700BF704700BF70B504461A
:102658000E46316C2046FFF777FF054688B9326C85
:102668006261236932462146012098470828F0D044
:10267800072806D12846316CFFF7E6FF301DFDF725
:10268800BFFD00F06FFD00BF2DE9F0470D1DD0F82C
:102698000C80D0F81890074614460FCDADF5727D22
:1026A8000DF10C0CACE80F000FCDACE80F000FCD0E
:1026B800ACE80F0095E80F0002AE4FF0000E8CE872
:1026C8000F00C6F800E020E0336C7B614FF4F07235
:1026D80031467AA8FDF76CFE3B697AAA394650461E
:1026E8009847889B73642146CDE9006905463B46B7
:1026F8003A460120C0470446E0B94FF4F0727AA97F
:102708003046FDF755FE082D1AD1316C3846FFF7D3
:102718001BFF09345FFA84FA05460028D4D0B36B4E
:1027280073643A46CDE900693B464AF0100101203E
:10273800C04700B1092528460DF5727DBDE8F08730
:10274800072DF7D12046316CFFF77EFF03A8FDF770
:1027580057FD00BFF0B5CB6B0B6401F1040C0E46BE
:102768000546BCE80F00F9B001AC0FC4BCE80F0087
:102778000FC4BCE80F000FC49CE80F004FF0FF37F0
:1027880084E80F00009706E02B696A4629469847B7
:102798000828044608D110992846FFF7D5FE0028D6
:1027A800F2D0092079B0F0BD6846FFF71BFF062C70
:1027B800F7D131462846FFF749FF00BFC160D96B02
:1027C8008261196400221946FFF75EBF70B5C668BA
:1027D80043690B64AEB903690A4604460D460146CF
:1027E80002209847072805D008280FD129462046F7
:1027F800FFF72CFF3046296CFFF726FF281DFDF751
:10280800FFFC0122FFF740FF00F0ACFC00F0AAFC3F
:10281800C26822B1CA6B0A640022FFF735BFFFF70E
:1028280099BF00BF012912D009D873B90F2A0CD853
:1028380000EB820218465368009A13607047033908
:10284800012994BF012002207047022070470846E2
:10285800704700BF00B585B00A46002303A9009160
:102868001946FFF7DFFF039805B05DF804FB00BFCA
:10287800012912D009D873B90F2A0CD800EB8200AD
:10288800009A12684260184670470339012994BFBC
:10289800012002207047022070470846704700BF99
:1028A80010B584B0002303AC039200940A4619467D
:1028B800FFF7DEFF04B010BD70B5D36B136402F1EF
:1028C800040C05460C46BCE80F00ADF50E7D0DF175
:1028D8005C0EAEE80F00BCE80F00AEE80F00BCE8E5
:1028E8000F00AEE80F009CE80F004FF0FF368EE8AF
:1028F8000F00169610E0FFF7D3FF214616A8A84749
:10290800034616AA6946082083B9049B98470528F8
:1029180006460CD0092809D026996846FFF714FE08
:1029280003466A460C2116A8002BE4D0092616A8EF
:10293800FFF758FE30460DF50E7D70BD2DE9F04FBE
:10294800CC6C89B01E4654F8043B06940D461746D5
:1029580000F00308002E79D01A0C1B0405938DF89B
:102968001D200223D2B204EB82048DF81C302B6D9B
:10297800B8F1020F08BFAC6B13F001030CD005A926
:10298800384600F099FA18B9082009B0BDE8F08F68
:10299800092009B0BDE8F08FD4F800A0BAF1000F03
:1029A800EDD0019300F008030293022E4AD0B4F848
:1029B80000A0B4F802900434AB6C29F0010B0F218D
:1029C80038469B44FFF746FF834539D82AF0010370
:1029D8009B44834594BF002001204FEA490303F03C
:1029E80002030AF0010A43EA0A03012B49D0022B29
:1029F80032D0002BCCD1B8F1000F02D0002840F023
:102A0800CD800434D4F800A0BAF1000FCDD105A9C7
:102A1800384600F051FA0028BAD1019B002BB3D0F8
:102A28000F213846FFF716FF0E2102463846FFF7FA
:102A380037FF38466A4A0F21FFF732FF0720A8E719
:102A48000020CAE7D4F804900834B5E71B020593C0
:102A58000323ADF81C308AE7236823F0004BB8F154
:102A6800000F45D128B1029A002A5CD0BBF1000FB3
:102A780074D0002B00DA04340BF1010B04EB8B0447
:102A8800C0E7B8F1000F19D1B0B163682268991C8A
:102A98004FEAD2723FF47CAF05F15801013304913B
:102AA80000F09080201DFFF7C9FD04AB01462846C1
:102AB800AFF3008000285BD10834A3E70D21384626
:102AC800D5F82090FFF7C6FE8145F5D1AB6A9C4248
:102AD800F2D12046FFF7ECFC0F2102463846FFF7FB
:102AE800DFFE38462A460021FFF7DAFE072050E7C6
:102AF8000D213846D5F82090FFF7ACFE814501D06E
:102B08002368B6E7AB6A9C42FAD104230022C5E9E0
:102B18000B23E318C5F828B06B632368002B59DB37
:102B280001230193A8E705F15803CDF80C8004F1BF
:102B3800040AB04691461E460EE050460496FFF73A
:102B48007DFD0022014604AB284609F101090AF17E
:102B5800040AAFF30080E0B9D945EED10D2138461B
:102B6800FFF778FE049BAC62C5E90803062010E76E
:102B780081460D213846FFF76DFEB9F1020F286234
:102B880025D12B46049A43F82C2F6B62AC620620A1
:102B9800FFE646462368DDF80C806AE72046FFF723
:102BA80087FC04340246AC6328461446AFF3008021
:102BB80000283FF4EDAE384622460F21FFF770FE9D
:102BC8000720E6E60D213846FFF744FE2862049BFD
:102BD8006B62DBE70BF1010004EB80007AE700BFD2
:102BE800000000000023FFF7A9BE00BF0123FFF784
:102BF800A5BE00BF0223FFF7A1BE00BF2DE9F04329
:102C08000646C3B015461C46042900F2BF80DFE81B
:102C180001F09E57BD2D0300002C40F0B780102A0C
:102C280000F2B4800368D80600F1F98020AF384676
:102C3800FDF758FBB46B394600234FF0010C0CFA32
:102C480003F22A42204603F1010303D050F8042B73
:102C58000A600446042B01F10401F0D13846B4633C
:102C6800FDF736FB002043B0BDE8F083032C40F0AD
:102C78008D8094B204EB1243102B4FEA124500F2F8
:102C8800858003681F0700F1D28020AF3846FDF722
:102C9800FDFAB26B07EBC50154B10B46D01A01EB34
:102CA800C401E4001D5843F8045B8B42FAD1224466
:102CB8003846B263FDF7C8FA002043B0BDE8F08398
:102CC800012C4FEA124895B25CD0052C5ED108EB76
:102CD8000509B9F1200F59D8B8F10F0F79D9A946CC
:102CE800002D40F08A80B36B6DB320AF4FF0000920
:102CF80007EBC807043F03EBC50553F8041B47F867
:102D0800041FAB42F9D1B9F1000F0FD06F4641460D
:102D1800102938BF102107EBC101843903EBC9051D
:102D280053F8040B41F8040FAB42F9D1012C00F021
:102D38008680B8F10F0FB56347D9B9F1000F02D0FB
:102D48006846FDF779FA002043B0BDE8F083ECB996
:102D5800806B23461FFA82FC0124371D04FA03F214
:102D680012EA0C0F014604D051F8042B47F823202F
:102D780008460133102BF1D115F40055E3D1B063A7
:102D8800284604E008EB0503102B03D9022043B0C2
:102D9800BDE8F083B8F10F0FF8D83368DA0706D525
:102DA800304623F0030340F8483BFDF739FA20AFDB
:102DB8003846FDF735FAB36B002D97D11D4604351B
:102DC800B5633846FDF728FABDE720A8FDF72CFAC9
:102DD800B3E7B9F1100F40D9A9F110093368D90741
:102DE80008D523F00103304643F0020340F8483B7E
:102DF800FDF71EFAB9F1000F32D033685A0720D414
:102E0800B8F10F0F25D96F463846C8F11005FDF700
:102E180017FA002DB36B7FF77AAF20AF68E723F07E
:102E28001003336006F5E870FDF75CFAFEE623F060
:102E38000803036000F5A870FDF728FA25E720AF1E
:102E4800BDE7304623F0040340F8D03BFDF7F8F91E
:102E5800D6E720A8FDF7ECF9D5E74FF00009BDE764
:102E6800B8F10F0F3FF63FAF20AF3846FDF7E0F956
:102E7800B36B002D7FF43AAF3846FDF7D5F962E71A
:102E8800027A03467AB9427AA2B14168013A10B48B
:102E98004272086803220C1D1A7202025C60000E5E
:102EA80010BC1A6070470068013A1A7202021A6070
:102EB800000E7047B02070472DE9F043054685B0F5
:102EC8000E464FF000083046FFF7DAFFB0280446F8
:102ED80000F0BA80070620D500F0F003802B4DD013
:102EE800902B36D0A02B60D0B02B74D0C02B00F024
:102EF8008B8000F0F803D02B0BD100F007020132D1
:102F0800052342F4002201212846FFF777FE002816
:102F1800D9D0092005B0BDE8F0838300DBB21F1DBE
:102F28000DF10C0900231946CDF800900D22284612
:102F3800FFF778FC039BCDF8009060064CBFDF1BC1
:102F4800FF1800230D22194628460397FFF790FC27
:102F5800B9E700F00D030D2BDBD003AF002300F021
:102F68000F02194600972846FFF75CFC00230097DC
:102F78000D2219462846FFF77BFCA4E73046FFF7E9
:102F88007FFF24022043B0F5004FC2D00401002384
:102F9800A2B219462846FFF731FE0028B9D114F429
:102FA800004F18BF4FF001088DE7C24302F0070336
:102FB8004FF47F621A41010702F47F624FF0000369
:102FC80048BF42F4804219462846FFF717FE0028FA
:102FD8003FF479AF9DE7B1283BD0B22800F0938049
:102FE800B32841D000F0FC03B42B92D000F00702C4
:102FF8000132012342F4002219462846FFF7FEFD5C
:1030080000283FF460AF84E7C6284AD0C72854D0C8
:1030180000F0F803C02B63D0C82868D0C9287FF413
:1030280078AF3046FFF72CFF020300F00F0002F4E0
:10303800702201300243012105232846FFF7DEFDF7
:1030480000283FF440AF64E7B8F1000F18D0002023
:1030580060E73046FFF714FF024600283FF459AFF7
:1030680010F0F003C8D054E73046FFF709FF020319
:1030780000F00F03013302F470221A430123BBE767
:1030880003AC43460E22414600942846FFF7CAFB8C
:10309800009443460F2241462846FFF7E9FB404685
:1030A80038E73046FFF7ECFE020300F00F03013368
:1030B80002F470221A4303239EE73046FFF7E0FE2E
:1030C800024600283FF425AF10F0F0037FF421AF4B
:1030D80004212846FFF792FD00283FF4F4AE18E7D4
:1030E80000F00F020132032342F4202284E7304625
:1030F800FFF7C6FE00F0F00200F00F0310320133B4
:1031080043EA023297E700230DF10C090D22194614
:10311800CDF800902846FFF785FB3046FFF7B0FE54
:1031280002064FF002040CD5039B00F07F00A0407C
:10313800184403903046FFF7A3FE030604F1070482
:10314800F2D4039BCDF8009000F07F02A24003F573
:1031580001731A440023039219460D222846FFF7EB
:1031680087FBB0E608B5062000F004F80120FFF759
:1031780035F800BF38B5154B1F281D6820D8D5F87D
:10318800DC22044662B152F820304BB1012B15D035
:10319800591C0FD0002542F820509847284638BDC2
:1031A800284600F02BF8224601462846BDE838405C
:1031B80000F00EB816232B60012038BD002038BD62
:1031C80016232B604FF0FF3038BD00BF0C000020E5
:1031D80070B50C46084D03460026204611461C468D
:1031E8002E6000F015F8431C00D070BD2B68002B32
:1031F800FBD0236070BD00BFEC04002000F000B8D5
:10320800024B58221A604FF0FF307047EC04002040
:10321800024B58221A604FF0FF307047EC04002030
:10322800F8B500BFF8BC08BC9E467047F8B500BFAB
:08323800F8BC08BC9E4670477B
:103240000101010307010000000000000000000070
:10325000010203040607080900000000010203043C
:10326000010002000400060008000A000C00100023
:103270002000400080000001080402040801010150
:08328000000000001000002016
:0C32880008B10181B0B00084000000001B
:1032940084EDFF7FB0B0AA80C4EDFF7F0100000081
:1032A40074EEFF7FA908B18098EEFF7F0100000053
:1032B400A4EEFF7FB0B0AE8028EFFF7F01000000D6
:1032C4008CF2FF7FB0A9028020F3FF7FB0B0A8800A
:1032D40070F3FF7F0100000078F3FF7FB0B0AA8095
:1032E400ACF3FF7FAE71B28070F4FF7FAB3F3880E8
:1032F400D0F4FF7F01000000D8F4FF7FB0B0AA80B3
:1033040014F5FF7F01000000B4F5FF7FAA0DB28021
:1033140030F6FF7FB0AF0880D0F8FF7F01000000D7
:10332400E0F8FF7FAD3F02805CFBFF7F01000000FF
:103334008CFBFF7FB0AD048030FEFF7F48FFFF7F32
:1033440038FEFF7FA908B1808CFEFF7FB0B0AA8051
:08335400B0FEFF7F0100000044
:08335C0005210008110500081D
:04336400ED0400086C
:103368000024F400010000001000000010000020FC
:1033780000000000FC02002064030020CC030020B1
:103388000000000000000000000000000000000035
:103398000000000000000000000000000000000025
:1033A8000000000000000000000000000000000015
:1033B8000000000000000000000000000000000005
:1033C80000000000000000000000000000000000F5
:1033D80000000000000000000000000000000000E5
:1033E80000000000000000000000000000000000D5
:1033F80000000000000000000000000000000000C5
:1034080000000000000000000000000000000000B4
:1034180000000000000000000100000000000000A3
:103428000E33CDAB34126DE6ECDE05000B00000068
:103438000000000000000000000000000000000084
:103448000000000000000000000000000000000074
:103458000000000000000000000000000000000064
:103468000000000000000000000000000000000054
:0C3798000000000000000000E804002019
:0400000508001FC50B
:00000001FF
